:100000000C942A000C9434000C9434000C943400AA
:100010000C9434000C9434000C9434000C94340090
:100020000C9434000C9434000C9434000C94340080
:100030000C9434000C9434000C9434000C94340070
:100040000C9434000C9434000C9434000C94340060
:100050000C94340011241FBECFE5D8E0DEBFCDBF25
:100060000E9436000C9467000C94000082EF81BB64
:1000700082E082BB949895989698979880E197E251
:1000800028EC30E0F9013197F1F70197D9F717BA69
:1000900088E088BB86B326B386B346B366B390E0E8
:1000A0008470907030E028703070822B932B50E079
:1000B00042705070842B952B70E061707070862BAD
:1000C000972B892B11F0919AE5CF9198E3CFF89473
:0200D000FFCF60
:00000001FF
