:100000000C942A000C9434000C9434000C943400AA
:100010000C9434000C9434000C9434000C94340090
:100020000C9434000C9434000C9434000C94340080
:100030000C9434000C9434000C9434000C94340070
:100040000C9434000C9434000C9434000C94340060
:100050000C94340011241FBECFE5D8E0DEBFCDBF25
:100060000E9436000C9451000C94000082EF81BB7A
:100070009798969895989498919A80E197E220E9BC
:1000800031E0F9013197F1F70197D9F717BAC39A1F
:10009000C29AC19AC09AB39B02C0919AFCCF919820
:0600A000FACFF894FFCF37
:00000001FF
