:100000000C942A000C9434000C9434000C943400AA
:100010000C9434000C9434000C9434000C94340090
:100020000C9434000C9434000C9434000C94340080
:100030000C9434000C9434000C9434000C94340070
:100040000C9434000C9434000C9434000C94340060
:100050000C94340011241FBECFE5D8E0DEBFCDBF25
:100060000E9436000C9482000C940000CF93DF9322
:100070000E94680082EF81BB979896989598949813
:10008000919A80E197E220E931E0F9013197F1F7A7
:100090000197D9F717BAC39AC29AC19AC09AC0E910
:1000A000D1E08DE490E00E94740080E197E2FE01CF
:1000B0003197F1F70197D9F78EE490E00E94740030
:1000C00080E197E2FE013197F1F70197D9F7E9CF87
:1000D00010BC87E689B988E18AB986E880BD0895B1
:1000E0005F9BFECF8CB108955D9BFECF8CB90895C8
:1000F000FC0104C05D9BFECF8CB9319680818823C2
:08010000C9F70895F894FFCF40
:00000001FF
