:100000000C942A000C9434000C9434000C943400AA
:100010000C9434000C9434000C9434000C94340090
:100020000C9434000C9434000C9434000C94340080
:100030000C9434000C9434000C9434000C94340070
:100040000C9434000C9434000C9434000C94340060
:100050000C94340011241FBECFE5D8E0DEBFCDBF25
:100060000E9436000C9450000C94000082EF81BB7B
:1000700082E082BB949895989698979880E197E251
:1000800020E931E0F9013197F1F70197D9F717BA73
:1000900088E088BBB39B02C0919AFCCF9198FACFBD
:0400A000F894FFCF02
:00000001FF
